:03000000020C826D
:0C0C8200787FE4F6D8FD758159020CC99A
:0B0EDD003F065B4F666D7D077F6F00D6
:0B0ED10009510A0A0A0A0A0A0A0A0A62
:100A9400E4F52EF52FF531120D0E120E20E4F52C8F
:100AA400F52BF52AF529F52FF52EF531FF743F2F97
:100AB400F8E4F674482FF8E4F60FBF09F01209556C
:100AC4008F2DE52D64237003020B9E120EC250522B
:100AD400E531146028046003020B9E743F252EF850
:100AE400A62D7440252EF8E4F6FB7A00793F120B0C
:100AF400A48F248E238D228C21052E8020744825DA
:100B04002FF8A62D7449252FF8E4F6FB7A007948CE
:100B1400120BA48F288E278D268C25052F120D16D7
:100B24008023E52D642B6011E52D642D600BE52DEC
:100B3400642A6005E52DB42F11753101852D30121D
:100B44000D0E75590A120E208050E52D643D70413A
:100B540085283985273885263785253685303AAF67
:100B640024AE23AD22AC21120D988F2C8E2B8D2A0E
:100B74008C2980151209558F2DE52DB44003020AE6
:100B84009BAF2CAE2BAD2AAC29120D16120E208071
:100B9400E3E52D64407003020A9B120E20020AC191
:040E8D007F037E0061
:100E9100D3EF9400EE940040147D787C00ED1D703A
:0D0EA100011CED4C70F7EF1F70E61E80E3A2
:010EAE002221
:080D98008F358E348D338C324F
:100DA000E53A24D6604124FD602224FE604E2404EE
:100DB0007065E5352539F53EE5343538F53DE533E3
:100DC0003537F53CE5323536F53B804BC3E5359597
:100DD00039F53EE5349538F53DE5339537F53CE595
:100DE000329536F53B8030AF39AE38AD37AC36ABE7
:100DF00035AA34A933A8321208008013AB39AA38B7
:100E0000A937A836AF35AE34AD33AC3212088B8F6C
:0F0E10003E8E3D8D3C8C3BAF3EAE3DAD3CAC3B92
:010E1F0022B0
:1009550075A07FE5A0540F640F6044120E8DE5A0CD
:10096500540F640F6039C293C294AFA0EF24856021
:100975001024FE601114601324077014753237803B
:1009850012753238800D753239800875322F800323
:10099500753223E5A0540FFFBF0FF8D293D294759B
:1009A500A0BFE5A0540F640F6044120E8DE5A0545E
:1009B5000F640F6039C293C294AFA0EF2445601055
:1009C50024FE6011146013240770147532348012EC
:1009D500753235800D753236800875322A8003757B
:1009E5003223E5A0540FFFBF0FF8D293D29475A020
:1009F500DFE5A0540F640F6044120E8DE5A0540F7F
:100A0500640F6039C293C294AFA0EF24256010240F
:100A1500FE6011146013240770147532318012754D
:100A25003232800D753233800875322D8003753270
:100A350023E5A0540FFFBF0FF8D293D29475A0EF12
:100A4500E5A0540F640F6044120E8DE5A0540F64A9
:100A55000F6039C293C294AFA0EF2415601024FE35
:100A650060111460132407701475324080127532BA
:100A750030800D75323D800875322B800375322329
:0E0A8500E5A0540FFFBF0FF8D293D294AF320A
:010A93002240
:080D0E007F007E007D007C00E7
:080D16008F358E348D338C32D1
:100D1E00E4FFFEFDFCAB35AA34A933A832C3120999
:100D2E001D7007F551753601804DE4F536E4FFFE72
:100D3E00FDFCAB35AA34A933A832D312091D4037B6
:100D4E00E47B0AFAF9F8AF35AE34AD33AC321208A3
:100D5E008BAF0374512536F8A607AF35AE34AD33DD
:100D6E00AC32E47B0AFAF9F812088B8F358E348D8B
:100D7E00338C32053680B6E536C39408500B745169
:090D8E002536F8760A053680EEE0
:010D97002239
:100E2000E4FBEBB40800504D900E2FF82828730215
:100E30000E47020E4B020E53020E57020E5F020EB9
:100E400063020E6B020E6FD2908002C290D291D2DA
:100E5000928022D2908002C290C291D2928016D209
:100E6000908002C290D291C292800AD2908002C237
:100E700090C291C29274512BF8E6900EDD93F5B0BA
:0C0E8000120E8DE4F5B00BEB64087096C8
:010E8C002243
:100C8E00020A94E493A3F8E493A34003F68001F2DE
:100C9E0008DFF48029E493A3F85407240CC8C33367
:100CAE00C4540F4420C8834004F456800146F6DF36
:100CBE00E4800B0102040810204080900ED1E47EE7
:100CCE00019360BCA3FF543F30E509541FFEE4932B
:100CDE00A360010ECF54C025E060A840B8E493A3F2
:100CEE00FAE493A3F8E493A3C8C582C8CAC583CA1D
:100CFE00F0A3C8C582C8CAC583CADFE9DEE780BED5
:010EDC000015
:10080000E88FF0A4CC8BF0A42CFCE98EF0A42CFC97
:100810008AF0EDA42CFCEA8EF0A4CDA8F08BF0A415
:100820002DCC3825F0FDE98FF0A42CCD35F0FCEB74
:100830008EF0A4FEA9F0EB8FF0A4CFC5F02ECD3939
:0F084000FEE43CFCEAA42DCE35F0FDE43CFC22A6
:10084F0075F008758200EF2FFFEE33FECD33CDCC60
:10085F0033CCC58233C5829BED9AEC99E5829840E3
:10086F000CF582EE9BFEED9AFDEC99FC0FD5F0D6C0
:10087F00E4CEFBE4CDFAE4CCF9A88222B800C1B9EA
:10088F000059BA002DEC8BF084CFCECDFCE5F0CB28
:10089F00F97818EF2FFFEE33FEED33FDEC33FCEB61
:1008AF0033FB10D703994004EB99FB0FD8E5E4F91C
:1008BF00FA227818EF2FFFEE33FEED33FDEC33FC09
:1008CF00C933C910D7059BE99A4007EC9BFCE99AFD
:1008DF00F90FD8E0E4C9FAE4CCFB2275F010EF2F42
:1008EF00FFEE33FEED33FDCC33CCC833C810D70742
:1008FF009BEC9AE899400AED9BFDEC9AFCE899F87D
:0E090F000FD5F0DAE4CDFBE4CCFAE4C8F9220F
:10091D00EB9FF5F0EA9E42F0E99D42F0E89C45F030
:01092D0022A7
:0F0EC200EFC394304007EF943A50028001C322EF
:100BA4008B328A338934AB32AA33A93412092EFF2B
:100BB400120EAF500D74012534F534E43533F5339A
:100BC40080E4D200AB32AA33A93412092EFF642B7D
:100BD4006004EFB42D1BAB320534E534AA33700244
:100BE400053314F912092E642D6003D38001C392D6
:100BF40000E4F538F537F536F535AB32AA33A934C8
:100C040012092EFF120EC2505CE47F0AFEFDFCABFB
:100C140038AA37A936A835120800C8ECC8EDC0E0D8
:100C2400EEC0E0EFC0E0AB32AA33A93412092EFFC4
:100C34003395E0FEEF24D0FFEE34FFFEE4FCFDD05C
:100C4400E0FBD0E0FAD0E0F9EB2FF538EA3EF537D7
:100C5400ED39F536EC38F53574012534F534E435E1
:100C640033F533809530000AAF38AE37AD36AC3546
:0E0C7400800BAF38AE37AD36AC3512094722D3
:10092E00BB010689828A83E0225002E722BBFE02C7
:09093E00E32289828A83E49322FA
:0E094700C3E49FFFE49EFEE49DFDE49CFC22C1
:100EAF00EFC394094005EF940E4003BF2003D38096
:030EBF0001C3224A
:00000001FF
